:020000040800F2
:1000000000000220FD360008453100084731000895
:10001000493100084B3100084D3100080000000054
:100020000000000000000000000000004F31000848
:10003000513100080000000053310008553100081C
:100040004D3700084D3700084D3700084D37000880
:100050004D3700084D3700084D3700084D37000870
:100060004D3700084D3700084D3700084D37000860
:100070004D3700084D3700084D3700084D37000850
:100080004D3700084D3700084D3700084D37000840
:100090004D3700084D3700084D3700084D37000830
:1000A0004D3700084D3700084D3700084D37000820
:1000B0004D3700084D3700084D3700084D37000810
:1000C0004D3700084D3700084D3700084D37000800
:1000D0004D3700084D3700084D3700084D370008F0
:1000E0004D3700084D3700084D3700084D370008E0
:1000F0004D3700084D3700084D3700084D370008D0
:100100004D3700084D3700084D3700084D370008BF
:100110004D3700084D3700084D3700084D370008AF
:100120004D3700084D3700084D3700084D3700089F
:100130004D3700084D3700084D3700084D3700088F
:100140004D3700084D3700084D3700085931000879
:100150004D3700084D3700084D3700084D3700086F
:100160004D3700084D3700084D3700084D3700085F
:100170004D3700084D3700084D37000800000000DB
:080180004D3700084D3700085F
:1001880010B5054C237833B9044B13B10448AFF3C9
:1001980000800123237010BD8401002000000000AE
:1001A8006039000808B5034B1BB103490348AFF396
:1001B800008008BD000000008801002060390008A8
:1001C80053B94AB9002908BF00281CBF4FF0FF31B6
:1001D8004FF0FF3000F072B9ADF1080C6DE904CEB4
:1001E80000F006F8DDF804E0DDE9022304B070470A
:1001F8002DE9F047089E04468846002B4BD18A42D9
:10020800154667D9B2FA82F24AB1C2F1200701FA5B
:1002180002F320FA07F7954047EA030894404FEAAB
:10022800154E230CB8FBFEF71FFA85FC0EFB17884A
:1002380043EA084307FB0CF1994209D9EB1807F187
:10024800FF3080F01B81994240F21881023F2B4415
:100258005B1AA4B2B3FBFEF00EFB103344EA03446E
:1002680000FB0CFCA44509D92C1900F1FF3380F0E0
:100278000781A44540F2048102382C4440EA074033
:10028800A4EB0C0400271EB1D4400023C6E90043A8
:100298003946BDE8F0878B4209D9002E00F0EB8083
:1002A8000027C6E9000138463946BDE8F087B3FAA9
:1002B80083F7002F47D18B4202D3824200F2FA80A3
:1002C800841A61EB030301209846002EE0D0C6E9AA
:1002D8000048DDE702B9FFDEB2FA82F2002A40F0F8
:1002E8008F80491B4FEA154E1FFA85F80127B1FB8D
:1002F800FEFC230C0EFB1C1143EA014308FB0CF126
:10030800994207D9EB180CF1FF3002D2994200F25A
:10031800CD808446591AA3B2B1FBFEF00EFB10142F
:1003280043EA044408FB00F8A04507D92C1900F15A
:10033800FF3302D2A04500F2B6801846A4EB0804A9
:1003480040EA0C409FE7C7F1200CBB4022FA0CFEA4
:100358004EEA030E01FA07F420FA0CF521FA0CF321
:100368004FEA1E482543B3FBF8F92C0C08FB193358
:100378001FFA8EFA44EA034309FB0AF49C4202FA84
:1003880007F200FA07F10BD91EEB030309F1FF305E
:1003980080F087809C4240F28480A9F1020973446E
:1003A8001B1BADB2B3FBF8F008FB103345EA03445E
:1003B80000FB0AFAA24508D91EEB040400F1FF333A
:1003C8006BD2A24569D90238744440EA0940A0FBBF
:1003D8000289A4EB0A044C45C2464B4654D351D07B
:1003E800002E69D0B1EB0A0564EB030404FA0CFC97
:1003F800FD40FC404CEA0505C6E90054002747E7E4
:10040800C2F1200320FA03F7954001FA02F021FA1D
:1004180003F34FEA154E3843010CB3FBFEF71FFAFE
:1004280085F80EFB173341EA034107FB08F38B42BB
:1004380004FA02F407D9691807F1FF3C2FD28B425E
:100448002DD9023F2944CB1A81B2B3FBFEF00EFB33
:10045800103341EA034100FB08F38B4207D96918BE
:1004680000F1FF3C17D28B4215D902382944C91A2A
:1004780040EA07473BE73746304609E70746E7E6DD
:100488001846FBE64145ABD2B8EB020A69EB0E020F
:1004980001381346A4E76046E9E7184695E767463A
:1004A800D1E781467CE702382C4447E7ACF1020CDF
:1004B8002B442FE7384608E73746E9E6704700BF80
:1004C80070B50E4A0E4E05464FF47A733078B3FB7A
:1004D800F0F31068B0FBF3F000F0A8F8044650B948
:1004E8000F2D08D8024629464FF0FF3000F05CF87F
:1004F8007560204670BD0120FCE700BFAC000020FD
:100508000000002008B50B4B1A6842F400721A600C
:100518001A6842F480621A601A6842F480721A609B
:10052800032000F02FF80020FFF7CAFF02F0EAFDD1
:10053800002008BD003C0240034A044B11681B78A8
:100548000B441360704700BFB40100200000002076
:10055800014B1868704700BFB401002038B5044645
:10056800FFF7F6FF631C1CBF054B1B78054618BF39
:10057800E418FFF7EDFF401BA042FAD338BD00BFD7
:1005880000000020074AD36823F4E0631B041B0C17
:1005980043F0BF63000243F4003300F4E060034318
:1005A800D360704700ED00E0174B70B5DC68C4F30A
:1005B8000224C4F10705042D04F1040328BF04250F
:1005C8004FF0FF36062B06FA05F38CBF033C0024D8
:1005D80021EA0303A34006FA04F422EA04040028EB
:1005E80043EA0403A8BF00F160404FEA0313BCBF0D
:1005F80000F00F00054ADBB2AABF00F561401354B2
:1006080080F8003370BD00BF00ED00E014ED00E09D
:10061800002808DB4209012300F01F0003FA00F05C
:10062800014B43F82200704700E100E00138B0F1C7
:10063800807F0AD2064B074A5860F02182F82310BF
:100648000020072298601A6070470120704700BF99
:1006580010E000E000ED00E02DE9F04F85B00B68F8
:10066800DFF8AC81684ADFF8AC91019300234FF0C2
:10067800010C019C0CFA03FC04EA0C06B44540F09A
:10068800AE804C6824F01007022F16D14FEAD30A27
:1006980000EB8A0A03F0070BDAF820504FEA8B0BBD
:1006A8004FF00F0E0EFA0BFE25EA0E0E0D6905FA35
:1006B8000BF545EA0E05CAF820504FEA430A032510
:1006C800D0F800B005FA0AF5ED4304F0030E05EA88
:1006D8000B0B0EFA0AFE013F4EEA0B0E012FC0F873
:1006E80000E011D8876807EA050BCF6807FA0AFE09
:1006F8004EEA0B078760476827EA0C0CC4F300171B
:100708009F4047EA0C074760C7683D408F6807FA73
:100718000AF73D43C560E50061D54FF0000BCDF801
:100728000CB0D8F84470394D47F48047C8F8447085
:10073800D8F8447007F480470397039F23F0030712
:1007480007F1804707F59C3703F0030ED7F808A098
:100758004FEA8E0E4FF00F0C0CFA0EFCA8422AEA54
:100768000C0C43D005F58065A84241D005F580659D
:10077800A8423FD005F58065A8423DD005F58065C3
:10078800A8423BD048453BD005F50065A84239D082
:1007980005F58065A84214BF0825072505FA0EF55A
:1007A80045EA0C05BD601568F74314F4803F0CBF9B
:1007B8003D4035431560556814F4003F0CBF3D407B
:1007C80035435560956814F4801F0CBF3D40354390
:1007D8009560D568A40254BF3D403543D5600133C8
:1007E800102B7FF444AF05B0BDE8F08F5D46D5E728
:1007F8000125D3E70225D1E70325CFE70425CDE777
:100808000525CBE70625C9E7003C0140000002406A
:1008180000380240001402400AB18161704709049F
:10082800FBE7436931EA030308BF090481617047A4
:10083800F0B504468BB060B390F8BD33056803F09B
:10084800FF021BB980F8BC2302F0F0FC032384F8F4
:10085800BD33EB6B254613F4807355F8100B08BFB6
:10086800236100F0E7FF0FCD6E460FC60FCD0FC610
:1008780095E8030086E803002546271D97E80E0043
:1008880055F8100B00F01CFF064620B1022384F82F
:10089800BD33012550E00146206800F0D1FF304605
:1008A800D4F804C01C264FF0010E0146C2B294458C
:1008B80000F101001CD800231C261946D8B2844533
:1008C80003F1010322D80FCD6E460FC60FCD0FC618
:1008D80095E8030086E8030097E80E00206800F01A
:1008E800F1FF0123054600B3022284F8BD23D0E7B7
:1008F80006FB0243C3E9111183F83DE083F83C206D
:10090800A3F8422083F83F101965CFE706FB0042A1
:1009180082F8FD1182F8FC0182F8FF11C2F8041276
:10092800C2F80812C2F81012C8E784F8380084F830
:10093800BD33206801F0E2FA28460BB0F0BD90F80C
:10094800BC33012B10B5044616D00123006884F887
:10095800BC33A36A012B06D1A369012B1EBF836B8D
:1009680043F48033836301F0BDFA206800F05CFF34
:10097800002084F8BC0310BD0220FCE72DE9F04FED
:10098800D0F800B087B00446584601F0F2FA029059
:10099800002840F02281206801F0BCFA002800F00D
:1009A8001C81206801F0B6FA860748BF22682068D3
:1009B80042BF536903F00203536101F0ABFA050328
:1009C80000F10E81206801F0A5FA40030BD52068DC
:1009D80001F0ACFA2546814600260BF51068B9F1FE
:1009E800000F40F0C681206801F094FA002815DA5B
:1009F800DBF8043823F00103CBF8043894F8F43317
:100A0800012B40F04C82002184F8F413204600F0BA
:100A1800EFFB2268536903F000435361206801F03B
:100A280079FA00050BD5DBF80838D90702D5204636
:100A380002F066FC2268536903F40063536120687E
:100A480001F068FAC20435D50BF500656B682068BB
:100A580023F001036B60102100F00AFF60680BF5BA
:100A680010634FF67F31029A904240F01C82EB6986
:100A780043F00113EB61236B002B00F02682D5F8BD
:100A8800843043F00B03C5F884306B6C43F00B03E0
:100A98006B64DBF80038217C206823F4FE63CBF814
:100AA800003804F5717201F083FA2268536903F47F
:100AB80080535361206801F02DFA830416D520680D
:100AC80001F05BFA206800F0C1FFE060256800F0E3
:100AD800D9FD227B0146284600F032FE204602F06E
:100AE800FCFB2268536903F400535361206801F04A
:100AF80011FAC7062BD52268936923F01003936176
:100B0800DBF82050C5F34343022B05F00F0640F0F5
:100B1800E78147F6F0731D4214D01C2303FB0646F9
:100B2800C5F30A152A46D6F80812584601F068F99E
:100B3800D6F808322B44C6F80832D6F814321D44C9
:100B4800C6F814522268936943F010039361206831
:100B580001F0E0F9060707D5204602F0BAFB226843
:100B6800536903F008035361206801F0D3F9C50203
:100B780008D50021204602F0E3FB2268536903F4FC
:100B880080135361206801F0C5F9800208D500215F
:100B9800204602F0D1FB2268536903F40013536125
:100BA800206801F0B7F9410007D5204602F0CCFBD8
:100BB8002268536903F080435361206801F0AAF961
:100BC80042070AD523685D686B0702D5204602F004
:100BD800BFFB226853682B43536007B0BDE8F08F12
:100BE8002068DFF8209301F099F9002580460BF57D
:100BF8003066B8F1000F3FF4E5AE18F0010F00F0D1
:100C0800B480EBB219462068039301F097F910F00D
:100C1800010F0746039B53D04FEA451A06EB0A0219
:100C28000121916022682169106C02F530629244BA
:100C38000129DAF8082058D1110714D5484505D9F3
:100C4800100444BF4FF40043CAF80830204602F0AD
:100C580029FB04F571720121206801F0A9F9082324
:100C6800CAF808302CE0910601D52023F8E712F0E5
:100C7800280F25D1484504D9100402D54FF4004364
:100C8800EEE71C2202FB0542DAF81010D2F8040243
:100C9800C1F31201411AC2F81412D2F8081208441A
:100CA800C2F808021946204602F002FB45B9D4F8FA
:100CB80010322BB904F571720121206801F078F91E
:100CC800380737D5236820691A6C4FEA451A03F5A7
:100CD800306353440128996816D14A4517D9090445
:100CE80044BF4FF40041996011E08549884206D11C
:100CF8001104C3D4920644BF2022CAF8082019461A
:100D0800204602F0D5FADBE77D488242E7D020464C
:100D1800039202F0C7FA039A4A4507D921690129C3
:100D280004D104F57172206801F042F9B244082335
:100D3800CAF80830F80642BF06EB451310229A603D
:100D4800B9060BD52169012904D104F5717220680F
:100D580001F02EF906EB451320229A60BA0442BF2F
:100D680006EB45134FF400529A6001354FEA5808D4
:100D78003FE719F0010F72D05FFA86FA51462068F2
:100D880001F0E5F8C307074624D5DBF8343801201D
:100D980006F00F0200FA02F223EA0203CBF8343815
:100DA80008EB4613024698602369834202BFD5E9DF
:100DB80011239B18AB645146204602F082FA216940
:100DC800012907D136B9236D23B904F5717220685A
:100DD80001F0EEF8380742BF08EB461308229A6084
:100DE800F90642BF08EB461310229A607A0642BF02
:100DF80008EB461340229A60BB0742BF08EB461334
:100E080002229A603F062AD5D5E914329A4226D89A
:100E18009B1A6A6C21680391934228BF13460333D7
:100E28009B08049301F5106303EB46130593059B98
:100E380004999A6992B28A42D5E9147314D29F42EE
:100E48000DD8039B06F00F0203F5006A0121D3F8C1
:100E5800343801FA02F223EA0203CAF834300136C0
:100E68004FEA59091C35BAE59F42EAD9002FE8D064
:100E7800FF1A6B6C03989F4228BF1F46FB1C9B08F8
:100E88000493237C00935246BBB2A96C00F0CCFEBD
:100E9800AB6C3B44AB646B6D1F446F65C7E7204682
:100EA80002F046FAB5E599601A6822F400121A6051
:100EB800C3F80812D3F8002222F40012C3F8002263
:100EC800029A013202922033CDE56B6943F4005354
:100ED80043F02B036B612B6943F00B032B61D8E5BF
:100EE800062B7FF42FAE082204F57171584600F0E6
:100EF80087FF1C2303FB0646C5F30A151DE600BF42
:100F08000A31544F0A30544F90F8BC23012A10B5C7
:100F180004460BD0012280F8BC2384F838100068FE
:100F280000F0D0FF002084F8BC0310BD0220FCE7CD
:100F380070B501F00F05044611F0800FC5EBC50030
:100F48004FEA80004FF01C061FD006FB054600F153
:100F58003C010120214486F83D008A604A780D70E2
:100F6800CB7002B1CD80022B04BF00230B7194F823
:100F7800BC33012B12D0012384F8BC33206800F065
:100F880070FD002084F8BC0370BD06FB054600F523
:100F9800FE710020214486F8FD01DEE70220F3E718
:100FA80010B5044601F00F00C0EBC00311F0800F2C
:100FB8004FEA83034FF01C0216D002FB004203F1F4
:100FC8003C010123214482F83D30087094F8BC3379
:100FD800012B12D0012384F8BC33206800F080FD77
:100FE800002084F8BC0310BD02FB004203F5FE712B
:100FF8000023214482F8FD31E7E70220F3E738B502
:1010080001F00F051C2404FB050104FB050401F590
:10101800FE71C4F810320023C4F80822C4F8143250
:1010280084F8FD3184F8FC5103690068012B08BF7E
:10103800C4F80C22DAB21DB900F082FD002038BDD8
:1010480000F006FEFAE71C2301F00F0103FB010183
:10105800D1F81402704738B501F00F051C2404FBC1
:10106800050104FB05043C31236500236365012366
:10107800A26484F83D3084F83C5003690068012B71
:1010880008BFE264DAB21DB900F05AFD002038BD8D
:1010980000F0DEFDFAE738B5436801F00F059D4220
:1010A80004462ED811F0800F4FF01C021FD002FB0F
:1010B800050102FB050301223C3381F83D20012292
:1010C8009A701D7094F8BC1391421CD084F8BC230C
:1010D8001946206800F0A2FE2DB904F57172217C32
:1010E800206800F065FF002084F8BC0338BD02FBCF
:1010F800010302FB0101002203F5FE7381F8FD21C3
:10110800DDE70120F2E70220F0E738B5436801F097
:101118000F029A4204462AD8C2EBC20311F0800F8C
:101128004FEA83034FF01C0018D000FB024003F184
:101138003C010123214480F83D3000258D700A7060
:1011480094F8BC33012B14D0012384F8BC332068F5
:1011580000F08FFE84F8BC53284638BD00FB0240DF
:1011680003F5FE710023214480F8FD31E5E70120F5
:10117800F3E70220F1E790F8BC33012B10B50446E1
:1011880010D0012380F8BC330B06006807D501F0A6
:101198000F0100F06DFB002084F8BC0310BD00F0C7
:1011A80079FBF8E70220F9E7006870B51204446A91
:1011B80019B922438262002070BD836A4D1E04EB78
:1011C800134400235E1CDBB29D4205D83F3100EB7F
:1011D800810022434260EEE7403300EB83035B6803
:1011E80004EB13443346EDE7036800205962704767
:1011F800704700002DE9F341044618B9012002B0F8
:10120800BDE8F0810368DD0710D42368980758D437
:1012180023681A0700F19A8023685B0700F1B880F9
:10122800A269002A40F019810020E8E7A64B9A68D5
:1012380002F00C02042A07D09A6802F00C02082A6D
:101248000AD15B68590207D59F4B1B689A03DCD506
:101258006368002BD9D1D1E763689B4DB3F5803F14
:1012680011D12B6843F480332B60FFF771F9964D49
:1012780006462B689B03C8D4FFF76AF9801B6428CD
:10128800F7D90320BBE7B3F5A02F04D12B6843F4AB
:1012980080232B60E5E72A6822F480322A602A68D6
:1012A80022F480222A60002BDFD1FFF751F906468D
:1012B8002B689F03A9D5FFF74BF9801B6428F7D942
:1012C800DFE7814B9A6812F00C0F07D09A6802F09A
:1012D8000C02082A11D15B685E020ED47A4B1A6898
:1012E800950702D5E268012A88D11A68216922F097
:1012F800F80242EAC1021A608AE7E268734BB2B1A7
:1013080001221A60FFF724F96F4D06462B689807EB
:1013180007D52B68226923F0F80343EAC2032B6040
:1013280076E7FFF715F9801B0228EFD9A9E71A60BD
:10133800FFF70EF9644D06462B6899077FF568AFED
:10134800FFF706F9801B0228F6D99AE76269604B15
:101358007AB101221A60FFF7FBF85B4D06466B6F06
:101368009F073FF559AFFFF7F3F8801B0228F6D91E
:1013780087E71A60FFF7ECF8534D06466B6F98073E
:101388007FF54AAFFFF7E4F8801B0228F6D978E723
:101398004D4B1A6C12F0805228D101921A6C42F00F
:1013A80080521A641B6C03F080530193019B012641
:1013B800484D2B68D9051BD5A368434D012B27D170
:1013C8002B6F43F001032B67FFF7C2F83E4D07462A
:1013D80041F288382B6F9B0739D5002E3FF420AF98
:1013E800394A136C23F08053136419E70026DFE7AA
:1013F8002B6843F480732B60FFF7AAF807462B6825
:10140800DA05D9D4FFF7A4F8C01B0228F7D938E7C2
:10141800052B04D12B6F43F004032B67D0E72A6F09
:1014280022F001022A672A6F22F004022A67002BA1
:10143800CAD1FFF78DF841F2883807462B6F980715
:10144800CBD5FFF785F8C01B4045F7D919E7FFF75B
:101458007FF8C01B4045BDD913E71B4DAB6803F0AF
:101468000C03082B3FF4CAAE1B4E0023022A33603C
:1014780034D1FFF76DF807462B6899011ED4D4E9DB
:1014880007321343626A43EA8213E26A43EA026359
:10149800A26A0D4C5208013A43EA02436B600123E9
:1014A8003360FFF755F8054623689A013FF5BCAE4F
:1014B800FFF74EF8401B0228F6D9E2E6FFF748F896
:1014C800C01B0228D8D9DCE6003802400000474299
:1014D800800E47420070004060004742FFF738F82E
:1014E80004462B689B017FF59FAEFFF731F8001B80
:1014F8000228F6D9C5E600BF134908B58B6803F082
:101508000C03042B03D0082B03D0104800E010482C
:1015180008BD4A684B68496813F4800314BF0C4837
:101528000A48C1F3881118BF002302F03F02A1FB4B
:101538000001FEF745FE044B5B68C3F3014301332A
:101548005B00B0FBF3F0E3E7003802400024F4004E
:1015580000127A002DE9F0410D46044610B9012029
:10156800BDE8F081434B1A6802F00F028A4227D384
:1015780021688F072CD4C8073FD43E4B1A6802F065
:101588000F02AA4264D8226851076AD4130707D504
:10159800394A2169936823F4604343EAC10393609D
:1015A800FFF7AAFF344B354A9B68C3F30313D35C98
:1015B800D840334B18600020FEF782FF0020CFE7A9
:1015C800CAB21A701B6803F00F038B42C7D1CFE76A
:1015D800294B11F0040F1EBF9A6842F4E0529A603A
:1015E8000E0742BF9A6842F460429A609A68A068FF
:1015F80022F0F00202439A60BDE762681E4B012A9E
:101608001CD11B6813F4003FA9D01B4EB36823F00C
:1016180003031343B360FEF79BFF41F28838074684
:10162800B368626803F00C03B3EB820FA5D0FEF732
:101638008FFFC01B4045F3D9032091E7911E012974
:101648001B6802D813F0007FDEE713F0020FDBE718
:10165800EAB21A701B6803F00F03AB427FF47FAF46
:1016680091E70549E0688B6823F4E05303438B60F6
:101678008CE700BF003C0240003802408F39000868
:10168800AC000020014B1868704700BFAC00002078
:101698000A4B013B0FD00269002AFADA0369074AAC
:1016A80043F001030361013A05D0036913F0010314
:1016B800F9D1184670470320704700BF410D030059
:1016C80084B038B505AD85E80E000A9B012B0446A9
:1016D80025D1836B23F480338363C36823F48403A5
:1016E80023F04003C360C36823F44013C360119B15
:1016F800012B02BFC36843F48013C360FFF7C8FF20
:10170800089B012B07D1A36843F00603A360A368D5
:1017180043F02003A360BDE8384004B07047C368B5
:1017280043F04003C360FFF7B3FF0E9B23B9A36BDD
:1017380043F48033A363E3E7A36B23F48033F9E72F
:10174800022A58D12E4B2F4A0B44934247D92E4B8D
:101758002E4A0B44934244D9A1F574032C4AA3F5AD
:10176800105393423FD9A1F1837302F5C332A3F515
:10177800E743A032934238D9264B274A0B44934279
:1017880035D9264B02F592220B4402F57872934222
:101798002FD9234B02F5C3220B4402F52072934242
:1017A80029D9A1F1B77302F5B712A3F5585302F579
:1017B8005872934221D91B4B02F512220B4402F5B1
:1017C800F862934294BF07230623C26822F470523A
:1017D800C260C26842EA8323C360002070470F23B7
:1017E800F3E70E23F1E70D23EFE70C23EDE70B23D7
:1017F800EBE70A23E9E70923E7E70823E5E700BF62
:10180800405327FFFF340C00401E1BFF3F420F00D0
:101818007F4F120060B6E5FE5FE3160000D3CEFEF0
:10182800C05BB3FEE05459FE836843F00103836054
:1018380000207047836823F001038360002070470D
:1018480008B5C368012923F0C043C36008D1C36841
:1018580043F00053C3603220FEF780FE002008BD2D
:1018680019B9C36843F08043F4E70120F7E70000A3
:10187800890141F02001064A0161013A05D0036956
:1018880013F02003F9D1184670470320704700BFB2
:10189800410D03001023064A0361013A05D003698C
:1018A80013F01003F9D1184670470320704700BFA2
:1018B800410D0300D0F800381943C0F80018002083
:1018C8007047000084B02DE9F047044609A880E875
:1018D8000E0000230C9F139E8846194603F1400210
:1018E80004EB820201330F2B5160F7D1002E73D124
:1018F800A36B43F40013A363A36B23F40023A36334
:10190800A36B23F48023A3630023C4F8003ED4F818
:101918000038C4F800380E9B012B04F5006565D12A
:101928000B99002960D12046FFF7C4FF10212046FB
:10193800FFF79EFF01462046FFF7ACFF002857D16E
:10194800081C18BF012000232B6104F510626B618D
:101958001946EB614FF0904C4FF0006E4FF67F390F
:10196800434547D1002104F530628C464FF0904E34
:101978004FF000684FF67F398B424ED12B69012F0B
:1019880023F480732B6107D12E4B2B632B6B43F40D
:10199800803343F003032B630023A3616FF080437C
:1019A80063611FB9A36943F01003A361A269264BC1
:1019B8001343A3610F9B1BB1A36943F00803A36101
:1019C800012E01BFA36943F0804343F00403A361E0
:1019D800BDE8F04704B07047236823F40013236080
:1019E800A36B43F400238EE719469CE703219AE78B
:1019F8000120A8E7D2F800A0BAF1000F0BDA3BB932
:101A0800C2F800E011610133C2F808902032A7E75C
:101A1800C2F800C0F6E71160F4E7D2F800A0BAF106
:101A2800000F0CDA41B9C2F80080C2F810C00131C9
:101A3800C2F8089020329FE7C2F800E0F5E7C2F844
:101A480000C0F2E70001800000383C80D0F8083878
:101A580013F0060004D013F0020F14BF02200F2069
:101A6800704730B50D78012405F00F039C404B7882
:101A780000F50062012B00EB4510D36918D11C4317
:101A8800D461D0F800391A0410D48B68C978D0F81A
:101A98000029C3F30A0343F0805343F4004343EAA5
:101AA800814343EA85531343C0F80039002030BD11
:101AB80043EA0444D461D0F8003B1B04F6D48B6895
:101AC800C978D0F8002BC3F30A0343F0805343F4DA
:101AD800004343EA81431343C0F8003BE6E70000B4
:101AE80030B50C78497800F5006204F00F05012341
:101AF800012903FA05F300EB4410D16B0DD1DB4348
:101B08001940D163D1690B40D361D0F800290A4B41
:101B18001340C0F80039002030BD6FEA0343194074
:101B2800D163D1690B40D361D0F8002B034B13402C
:101B3800C0F8003BEFE700BF007833EC0078F3EF24
:101B48004B78F0B50C784D69354E364F012B00EBCC
:101B5800441444D104F51063B5B91D692E401E61C3
:101B68001D6945F400251D611D692F401F61012A6B
:101B780021D10A6902B15A61D4F8003943F004430B
:101B8800C4F800390020F0BDD3F810C00CEA0707EC
:101B98001F611F693E401E618E68AE421D6938BFD5
:101BA8004E6145F400251D614D691E69C5F3120596
:101BB80035431D61DBE7D4F8003943F00443C4F82A
:101BC80000394B69002BDDD00B78D0F8344803F08E
:101BD8000F02012393402343C0F83438D2E704F5B9
:101BE800306318693840186118693040186188688E
:101BF80005B148611D6945F400251D611D69C0F3E3
:101C080012002843012A186102D1CA6802B15A6138
:101C1800D4F8003B43F00443C4F8003BB2E700BFEC
:101C2800FFFF07E00000F8FF10B59DF808404CB929
:101C3800033300EB02309B0800F5805001EB83036F
:101C4800994201D1002010BD51F8042B0260F7E73A
:101C5800F7B54D780C784B69CE78DFF89CC1DFF882
:101C68009CE1012D00EB44147CD104F510652F692B
:101C78003BBB07EA0C072F612F6947F400272F6148
:101C88002F6907EA0E072F61012A41D10B6903B1B9
:101C98006B61012E0CD1D0F8083813F4807FD4F88A
:101CA80000390CBF43F0005343F08053C4F80039A7
:101CB800D4F8003943F00443C4F80039002003B0D5
:101CC800F0BD07EA0E072F612F6907EA0C07D1F864
:101CD80008C02F610CEB0307013FB7FBFCFC454F25
:101CE800D5F810E007EACC4747EA0E072F61D5F888
:101CF80010C0C3F3120747EA0C07012E2F61C3D1A6
:101D08002F6927F0C0472F612F6947F00057BAE7BE
:101D1800D4F80059012E45F00445C4F800590CD0F8
:101D2800002BCBD00B78D0F8344803F00F020123F6
:101D380093402343C0F83438C0E7D0F8085815F466
:101D4800807FD4F800590CBF45F0005545F0805508
:101D5800C4F800590C7800929BB22246C968FFF774
:101D680063FFABE704F530673D6905EA0E053D61A1
:101D78003D6905EA0C053D618D681BBB3B69C5F3F0
:101D880012051D433D613B6943F40023012A3B6171
:101D980002D1CB6803B17B61012E0CD1D0F8083891
:101DA80013F4807FD4F8003B0CBF43F0005343F09A
:101DB8008053C4F8003BD4F8003B43F00443C4F814
:101DC800003B7BE7DFF82CC0D7F810E02B44013B41
:101DD800B3FBF5F30CEAC34C4CEA0E0CC7F810C081
:101DE8009BB2D7F810C06B43C3F3120343EA0C034A
:101DF800CCE700BF0000F81FFFFF07E00000F8FF76
:101E08000332920801EB820200F58050914201D121
:101E180008467047036841F8043BF7E74A780B78AF
:101E2800012A00EB431012D1D0F80029002A06DB62
:101E38002BB1D0F8003923F08043C0F80039D0F82E
:101E4800003943F40013C0F8003900207047D0F877
:101E5800002B002A06DB2BB1D0F8003B23F080438F
:101E6800C0F8003BD0F8003B43F40013C0F8003B37
:101E7800EBE70B784A7800EB4310CB78012AA3F103
:101E88000203DBB20FD1D0F80029012B22F4001293
:101E9800C0F8002905D8D0F8003943F08053C0F8BD
:101EA800003900207047D0F8002B22F40012012BD3
:101EB800C0F8002B9EBFD0F8003B43F08053C0F819
:101EC800003BEEE7D0F8003823F4FE63C0F8003892
:101ED800D0F80038090101F4FE611943C0F8001870
:101EE8000020704708B5D0F8043823F00203C0F882
:101EF80004380320FEF732FB002008BD08B5D0F8EF
:101F0800043843F00203C0F804380320FEF726FB28
:101F1800002008BD4269806910407047D0F8183821
:101F280000F50060C0691840000C7047D0F81838F8
:101F380000F50060C069184080B2704700EB41119D
:101F480000F50060D1F8082B40691040704710B5C3
:101F5800D0F81048D0F8343800EB411001F00F01E8
:101F6800CB4000F51060DB018068DBB223431840EA
:101F780010BD406900F001007047D0F8003923F423
:101F8800FF6323F00703C0F8003900F500639A687F
:101F980002F00602042A02BFD0F8002942F0030228
:101FA800C0F800295A6842F480725A6000207047CD
:101FB80030B5056C104CA54200F5306303D9D0F854
:101FC800004B002C16DB00241C611C6944F400241F
:101FD8001C611C6944F018041C611C69012944F047
:101FE800C0441C6101BF5A61D0F8003B43F0802314
:101FF800C0F8003B002030BD0A30544F2023038036
:1020080000487047080000202023038000487047DC
:102018002800002020230380004870474800002043
:102028000A230380004870476800002038B5037C05
:102038000446E3B94FF4007302220121012501F09F
:10204800C7F9C4F858514FF4007302228121204681
:1020580001F0BEF9E5624FF41B7001F09FFBC4F874
:10206800900270B1204600F0FEF8002038BD4023F1
:1020780002220121012501F0ABF9C4F8585140238F
:10208800E3E70220F2E738B504460121002501F014
:10209800AFF98121C4F85851204601F0A9F920462A
:1020A800E56200F008F9D4F8900218B101F07EFB5F
:1020B800C4F89052002038BD2DE9F3410023ADF853
:1020C80006300B78D0F8907213F0600204460E4682
:1020D8002FD0202A04D14A78FE2A09D0FF2A1CD002
:1020E8002046314600F01EFF022002B0BDE8F08114
:1020F8004D88002DF4D1B1F80680B8F1010FEFD169
:102108001A06EDD5D0F894329B6998474246386054
:102118003946204600F02DFF09E04A88002ADFD121
:10212800CD88002DDCD11B06DAD400F0B9F80020E8
:10213800DBE74B780B2BD3D801A252F823F000BF72
:1021480079210008A5210008E9200008E9200008F5
:10215800E9200008E9200008E9200008E920000833
:10216800E9200008E92000088921000897210008D3
:1021780090F87432032BB3D102220DF10601C8E79F
:1021880090F87432032BABD10122391DC1E790F8C6
:102198007432032BA4D18B787B60C8E7097901F0EE
:1021A80035F93179204601F023F9B288142002F07C
:1021B8000F0312F0800F4FF00001227C00FB034355
:1021C80011D099616AB94FF4007302228121204627
:1021D80001F0FEF80123E3623179204600F014F99A
:1021E800A5E74023F1E7C3F8441152B94FF400734F
:1021F80002220121204601F0EBF80123C4F85831EE
:10220800EAE74023F4E700BF08B500F075F80020BE
:1022180008BD08B500F08CF8002008BD09B1C0F869
:1022280094120020704770B5D0F8904294F8183294
:1022380005463BB9D4F8143223B1637A13B90121A6
:1022480001F0F2F88121284601F0EEF8637A022BBA
:1022580008D104F5037228461F230121BDE8704008
:1022680001F02EB970BD70B5D0F890520446002028
:102278002881A5F85C02D4F894321B68984701219C
:10228800204601F0C3F88121204601F0BFF805F58A
:10229800037220461F230121BDE8704001F010B9E8
:1022A800D0F890224FF48073138101211F2302F587
:1022B800037201F005B9D0F8903200221A72704703
:1022C80070B5D0F890420B4BC4F82C320023054669
:1022D80084F83812237204F50B720D23812101F062
:1022E800E1F804F5037228461F230121BDE8704078
:1022F80001F0E6B85553425310B5D0F890321A7A27
:10230800022A044603D001D3042A0ED910BD03F2D1
:102318001B2293F8191200F0A1F80028F6DA01211F
:102328002046BDE81040FFF7CBBF0021F9E70000C9
:1023380070B5D0F89042237A054613B1012B58D0D6
:1023480070BDD4F81032C4F83032D4F81432C4F85E
:102358003432012101F0C2F81F2894F819120BD168
:10236800D4F80C22274B9A4206D1012904D894F8B4
:102378001A32013B0F2B0BD920230522284600F0E7
:102388008BFA022363722846BDE87040FFF74BBF03
:1023980004F21B22284600F061F80028237A07DAA5
:1023A800052BF0D101212846BDE87040FFF788BF12
:1023B800013B022BC4D96389CBB1D5F89012D1F86F
:1023C8003402D1F8146204F10C021C46001BC1F857
:1023D8003402002081F83802042008729E4238BF77
:1023E800B3B228468121BDE8704001F05BB81946B8
:1023F800D9E704F21B2294F8191200F02FF80028EC
:102408009EDACFE75553424310B5D0F89042637A2D
:10241800022B05D1812101F007F80023637210BD5A
:102428000A06FCD5012BFAD00121BDE81040FFF7C0
:1024380047BFD0F8902292F85D3202EBC300013317
:10244800DBB280F83C12042B4FF0000180F84012F8
:1024580014BF82F85D3282F85D1270472DE9F743A8
:1024680013781E2B05460C46174616D01AD8122B81
:1024780000F0DB800CD8002B00F08A80032B00F0E2
:10248800A58005212846FFF7D4FF4FF0FF3499E0D7
:102498001A2B00F0F2801B2BF3D1D5F890320024D0
:1024A8005C818FE0282B00F0328126D8232B00F0A6
:1024B8000281252BE5D1D0F89062D0F8943206F24B
:1024C8005E2220465B6806F5187198470446002886
:1024D80040F00581D6F860323082013B1A0E327323
:1024E8001A0C7273F3731A0AB6F85E32B273F37485
:1024F8001A0A0823B274738164E02F2B00F0B481A8
:102508005A2B00F0C9802A2BBBD1D0F89062337ABD
:10251800002B40F0698196F91832002B3DDBD0F88A
:10252800943208469B689847002840F0D880D5F830
:1025380094322046DB6898470446002840F0CF8054
:10254800D7F80220D5F8901212BAC6F86422B7F864
:102558000730D1F860125BBA9BB21A448A42C6F8B7
:1025680068321AD8B6F85E225343D6F8142293423A
:1025780013D1B3F5007F4FF0010128BF4FF400736A
:1025880031729BB206F10C02284600F099FF19E05F
:10259800D0F89062D6F8147227B105212846FFF7C3
:1025A80048FF0CE0D0F8943208469B6898470446E8
:1025B80038B102212846FFF73CFF05233372002477
:1025C80000E07081204603B0BDE8F083D0F8903277
:1025D800002003F10C0203F11E0102F8010B8A42EC
:1025E800FBD170221A730C22DA7493F85D1293F8F7
:1025F8005C22914212D003EBC201013291F83C42B5
:102608009C7391F841421C76D2B291F840125976E7
:10261800042A14BF83F85C2283F85C0212225A81D0
:102628003A79122A98BF5A81C9E77B78D0F8902264
:10263800DB070CD507239549538102F112030B32AE
:1026480011F8010D03F801099342F9D1B7E7D0F861
:102658009432DB6901EBC10403EB84042379591D2F
:102668003B798B4228BF0B465381002BA7D0013BF7
:102678009BB2D118E05C0873F7E7D0F89032844930
:1026880008225A8103F113020B3311F8010D02F8E5
:1026980001099342F9D192E7D0F890327D49082296
:1026A8005A8103F113020B3311F8010D02F80109E5
:1026B8009342F9D183E7D0F89062002106F10C0328
:1026C80006F1180203F8011B9342FBD1D5F89432A6
:1026D8000DF102025B6801A92046984708B1022162
:1026E8005CE70823F373019B7075013B1A0E327483
:1026F8001A0C7274F3741A0A02233375BDF8023087
:10270800B274F3751A0A0C23B275738157E7D0F8BF
:102718009062337A43BB96F91832002BBFF63DAF6F
:10272800D0F8943208469B6898470028D7D1D7F844
:102738000220D5F8901212BAC6F86422B7F807300A
:10274800D1F860125BBA9BB21A448A42C6F8683262
:102758003FF623AF02223272B6F85E225343D6F810
:1027680014229A427FF419AF4FF400737381D5F89D
:102778009062D5F89422B6F85E32D6F86872D2F82C
:102788001090D6F864225F43B7F5007F06F10C0875
:1027980028BF4FF400774146B7FBF3F320469BB2BE
:1027A800C847002801DA0421F8E6BBB24246812175
:1027B800284600F077FEB6F85E42D6F86422B7FBEA
:1027C800F4F3D6F868421A44E41AD6F83432C6F854
:1027D8006422DF1BC6F86842C6F83472002C7FF406
:1027E800EEAE03233372EDE6B6F85E32D6F86872C1
:1027F800D0F894225F43B7F5007F06F10C0828BF94
:102808004FF40077D2F81490B7FBF3F3D6F86422AC
:102818009BB241462046C8470028C4DBD6F864224C
:10282800B6F85E12B7FBF1F00244D6F86832C6F883
:102838006422D6F834221B1AD71BC6F86832C6F8A9
:10284800347223B900212846FFF73AFDB7E64B4317
:10285800B3F5007F28BF4FF400739BB242460121B5
:10286800284600F02DFEAAE65478D0F8903214F0ED
:1028780002047FF492AED3F86812D3F864220A44B3
:10288800D3F860128A427FF60BAE86E68F390008CD
:102898008839000880390008D0F8901291F85D3224
:1028A80001EBC3000133DBB280F83C22042B4FF06C
:1028B800000280F8402214BF81F85D3281F85D2261
:1028C800704708B580B1D0F88C3213B10023C0F836
:1028D8008C3209B1C0F88812012380F87432027072
:1028E80000F03AFD002008BD0220FCE719B1C0F84D
:1028F8008C12002070470220704708B500F05AFD7E
:10290800002008BD08B5D0F88C320BB9022008BDEC
:102918001B6898470028FAD0F8E708B5D0F88C3239
:102928005B689847002008BD38B5044600F5207557
:10293800284600F0E3FA012394F88012C4F86C32B8
:10294800B4F88632C4F8703201F01F03012B0ED0A0
:1029580007D3022B10D001F08001204600F064FD5F
:1029680003E02946204600F003F9002038BD294637
:10297800204600F017FAF8E72946204600F037FA13
:10298800F3E770B50546164649BBD0F86C32032B01
:102998001ED1D0F84C31D0F8502193420BD99B1A54
:1029A8009A42C0F84C318CBF9AB292B2314600F0CC
:1029B800F5FA002070BDD0F88C321B6923B190F86D
:1029C8007422032A00D19847284600F0EFFAF0E76E
:1029D800052BEED1C5F86C1200F026FDE9E7D0F81A
:1029E8008C329B692BB190F87422032A01D1984745
:1029F800DFE70220DEE770B5134604460E460029DD
:102A080048D1D0F86C22022A3DD1D0E9085295422B
:102A180014D9AA1A0262194692B200F0B7FA3346DC
:102A28001A461946204600F04BFD94F87832012BDF
:102A38004FF0000001D184F8780270BDC369B3FB80
:102A4800F2F502FB153565B99A420AD8D0F870221A
:102A5800934206D22A4600F099FAC4F870522B46DF
:102A6800DEE7D4F88C32DB682BB194F87422032AA1
:102A780001D1204698478021204600F0D5FC204609
:102A880000F09FFAD1E732F00403CED1802100F0A4
:102A9800CBFCCAE7D0F88C325B6933B190F874226A
:102AA800032A02D198470020C7E70220C5E770B57E
:102AB80000220446114601254026402300F088FCE8
:102AC80033468021C4F84451C4F85061002220469E
:102AD80000F07EFCD4F89032A5610021666284F88B
:102AE8007452C4F86C126160C4F87C1223B1D4F833
:102AF8008C3220465B689847002070BD0174002026
:102B0800704790F8743280F87532042380F8743274
:102B18000020704790F8753280F8743200207047B2
:102B280008B590F87422032A04D1D0F88C32DB69F6
:102B380003B19847002008BD002070470020704767
:102B48000020704708B5012280F87422D0F88C2242
:102B5800017952689047002008BD10B580210446CD
:102B680000F062FC20460021BDE8104000F05CBC8B
:102B780037B50B7803F06003202B04460D4614D0BC
:102B8800402B12D0002B40F08B804B78092B00F2A1
:102B98008780DFE813F0DF00F9008500F200850088
:102BA8007A0013008500CA009800D4F88C322946B0
:102BB8009B6820469847002003B030BD4B881A0A0E
:102BC800013A062A6CD8DFE802F004202D6B6B4D21
:102BD8005600D0F888321B68207C0DF10601984712
:102BE800BDF8062052B1EB8843B19A4228BF1A4675
:102BF80001462046ADF8062000F0BBF9EB88002B13
:102C0800D9D1204600F0D2F9D5E7027CD0F88C3231
:102C180032B99B6A0DF10600984702234370DFE73B
:102C2800DB6AF7E7DBB2052B3AD8DFE803F00307E6
:102C38000B0F1317D0F888325B68CDE7D0F88832CD
:102C48009B68C9E7D0F88832DB68C5E7D0F88832D6
:102C58001B69C1E7D0F888325B69BDE7D0F88832D4
:102C68009B69B9E7037CDBB9D0F88C320DF106001B
:102C78005B6B9847B4E7037C93B9D0F88C320DF1BD
:102C880006001B6B98470723C8E78B8843B9CB8896
:102C980033B94D887F2D03D890F87432032B03D1B4
:102CA8002046FFF75AFF86E7E9B280F8761200F06F
:102CB800EBFB204600F07AF91DB1022384F8743248
:102CC80079E70123FAE78978354D01292970E7D892
:102CD80090F87432022B08D0032B14D0FFF73DFF75
:102CE80029782046FFF719FE65E7002989D00121D8
:102CF8000323416080F874322046FFF703FE022860
:102D08007FF47FAFCCE731B9022380F87432416099
:102D1800FFF703FE75E7416801293FF472AFC9B2B6
:102D2800FFF7FBFD29786160E6E7CA88012AB7D179
:102D380090F87432002BB3D0022B03D9032BAFD1F8
:102D4800011D03E00146002341F8083F204600F03A
:102D580010F930E790F87432013B022BA0D8CB88E9
:102D6800022B9DD10123C360D0F87C320BB1032321
:102D7800C360022204F10C01E8E74B88012B7FF4C1
:102D88001AAFC4F87C323CE790F87432013B022B4E
:102D980086D84B88012B7FF40EAF0023F1E700BFE4
:102DA800A001002038B50B7803F06003202B0446FF
:102DB8000D4602D0402B00D0ABB994F87432013BD9
:102DC800022B10D82B79012B0DD8D4F88C32294638
:102DD8009B6820469847EB881BB910B9204600F03D
:102DE800E5F8002038BD2046FFF7B7FEF9E738B50B
:102DF8000A7802F06002202A04460B4614D0402AC2
:102E080012D06AB95A788D88012AE9B220D036D30F
:102E1800032A05D190F87422022A27D0032A0BD05E
:102E28002046FFF79AFE05E0D4F88C2219469268EE
:102E380020469047002038BD5A882AB94A0603D050
:102E4800DB880BB900F0F0FA204600F0AFF8F1E7A4
:102E580090F87422022A09D0032AE1D15B88002B5A
:102E6800E8D14D06F0D000F0EDFAEDE74B06D7D0EB
:102E780000F0DAFA8021204600F0D6FADAE790F876
:102E88007432022B18D0032BCAD101F00F0214237D
:102E980015F0800F03FB02021DD09269002ABFD0F3
:102EA80001F07F0505FB0335054411F07F031DD1B3
:102EB8002B60022229460AE04A06B1D12B064CBFF4
:102EC80000F1140100F5A07100230B6002222046D6
:102ED80000F04FF8AEE7D2F84421002AA0D001F064
:102EE8007F0503FB050505F5A075DEE7204600F024
:102EF800B7FA08B10123DBE72860DAE70B7803703B
:102F08004B784370CA788B7803EB022343804A7965
:102F18000B7903EB02238380CA798B7903EB0223B5
:102F2800C380704710B58021044600F07DFA204622
:102F38000021BDE8104000F077BA30B588B10546E9
:102F48002B1A15F8014BDBB2002CF9D101335B00C9
:102F580013800B7003234B700138022310F8015FB4
:102F680005B930BD5A1CD2B2CD540233DBB28C54F1
:102F7800F4E710B513460222C0F86C22C0E9073303
:102F88000A46002100F08EFA002010BD08B513464D
:102F98000A46002100F086FA002008BD08B513464D
:102FA8000A46002100F08CFA002008BD08B5042369
:102FB800C0F86C3200231A46194600F073FA002054
:102FC80008BD08B50523C0F86C3200231A46194617
:102FD80000F076FA002008BD30B595B01022002127
:102FE8000AA800F0F6FB0021142203A800F0F1FB68
:102FF80000241C4B01941A6C42F080521A641B6C1A
:1030080003F080530193019B174B02941A6842F412
:1030180080421A601B6803F480430293029B0122DA
:103028004FF48033CDE9082302254FF48003602252
:10303800CDE90E5308A80423CDE91032CDE9125387
:10304800FEF7D8F80F23CDE903354FF4A0514FF41C
:103058008053CDE9061303A803210594FEF77AFAF5
:1030680015B030BD003802400070004000B589B08E
:1030780000F0E6FAFDF746FAFFF7AEFF142200214A
:1030880003A800F0A6FB00241B4B01941A6B1B48F5
:1030980042F080021A631A6B02F080020192019AD0
:1030A80002941A6B42F001021A631B6B03F00103CE
:1030B800224602934FF486510125029BFDF7ACFB93
:1030C8004FF4865303A90D48CDE90335CDE90544EE
:1030D800FDF7C2FA4FF4FA70FDF740FA00F07EF8F7
:1030E8002A4680210548FDF797FB2A4640210348D8
:1030F800FDF792FBFEE700BF0038024000000240E7
:103108007047000082B00C4B002100915A6C42F4C9
:1031180080425A645A6C02F480420092009A0191EB
:103128001A6C42F080521A641B6C03F080530193AE
:10313800019B02B0704700BF003802407047FEE7AD
:10314800FEE7FEE7FEE7704770477047FDF7F4B902
:103158000148FDF713BC00BF5404002008B50A4B12
:103168001968024609B9094919601868694602448C
:103178008A4206D900F0E8FA0C2303604FF0FF30CA
:1031880008BD1A60FCE700BFA401002060E201202E
:103198000F49D1F8883043F47003C1F888300D4BDB
:1031A8001A68002042F001021A6098601A6822F03A
:1031B800847222F480321A60074A5A601A6822F42C
:1031C80080221A60D8604FF000638B60704700BFA0
:1031D80000ED00E0003802401030002408B500225D
:1031E8000E490F48FFF76DFB08B1FFF789FF0D493E
:1031F8000B48FFF77BFB08B1FFF782FF0A49084835
:10320800FFF70CF808B1FFF77BFF0548FFF775FBE0
:1032180018B1BDE80840FFF773BF08BDE4000020FF
:10322800B8010020740000200001002030B50368B8
:10323800B3F1A04F89B02FD1184C1948002501953A
:10324800236B43F001032363236B059503F001030C
:1032580001934FF4C052019B0223CDE903230321BC
:103268000A23CDE9061303A9FDF7F6F9636B43F0CA
:10327800800363630295636C43F480436364636C07
:1032880003F48043029343202A462946029BFDF714
:103298008BF94320FDF7BCF909B030BD0038024076
:1032A8000000024000F57171D0F80404FFF73CBB40
:1032B8001C2303FB0103D0F80404D3F80822FFF70A
:1032C80060BB1C2303FB0103D0F804049A6CFFF7CE
:1032D80092BBD0F80404FFF723BCC16810B50446BC
:1032E80021B1022901D0FFF70BFF0121D4F8040412
:1032F800FFF704FCD4F80404BDE81040FFF7D7BB7F
:1033080010B50446D0F80404FFF7FBFB2268D2F896
:10331800003E43F00103C2F8003E236A23B1034A8A
:10332800136943F00603136110BD00BF00ED00E010
:10333800D0F80404FFF7EEBBD0F80404FFF7FEBB97
:10334800D0F80404FFF7F8BBD0F80404FFF7F8BB83
:10335800D0F80404FFF7F6BB08B5027832BB144B6B
:103368000421C3F80404C0F898324FF0A040C3E920
:10337800000102211846C3E90312C3E90612C3E992
:103388000822C3E90B22FDF753FA08B1FFF7B8FE8C
:1033980080210748FDF728FF402200210448FDF757
:1033A80003FF802201210248FDF7FEFE002008BD30
:1033B8005404002008B5D0F89802FDF7C0FA032895
:1033C80096BF024B0220185C08BD00BFA739000851
:1033D80010B51C46D0F8980213462246FDF7A8FD02
:1033E800032896BF014B0220185C10BDA7390008BE
:1033F80008B5D0F89802FDF7D3FD032896BF024B15
:103408000220185C08BD00BFA739000808B5D0F82D
:103418009802FDF7B0FE032896BF024B0220185C05
:1034280008BD00BFA739000808B5D0F89802FDF715
:1034380032FE032896BF024B0220185C08BD00BF6D
:10344800A739000808B5D0F89802FDF75EFE0328F2
:1034580096BF024B0220185C08BD00BFA7390008C0
:1034680011F0800FD0F898324FF01C021BBF01F00A
:103478007F0102FB013102FB013191F83E0008BFD8
:1034880091F8FE017047000008B5D0F89802FDF7E2
:103498003BFD032896BF024B0220185C08BD00BF05
:1034A800A739000808B5D0F89802FDF7D4FD03281D
:1034B80096BF024B0220185C08BD00BFA739000860
:1034C80008B5D0F89802FDF79AFD032896BF024B7D
:1034D8000220185C08BD00BFA7390008D0F8980280
:1034E800FDF7B1BD12230B8000487047B0000020E3
:1034F80004230B8000487047C4000020002370B5E7
:103508001E46050FECB2092D94BF3034373401F84C
:10351800134001EB430401336670DCB2A2424FEA68
:103528000010EED870BD00001A2310B50B80094BAF
:10353800186808331B68C0180AD0074B07491C686D
:103548000822FFF7DBFF042205492046FFF7D6FFD4
:10355800044810BD107AFF1F147AFF1FCA0000200C
:10356800DA000020C800002010B5044C04480A46C0
:103578002146FFF7E2FC204610BD00BF5C08002092
:103588006A3A000810B5044C04480A462146FFF779
:10359800D4FC204610BD00BF5C0800207D3A00081E
:1035A80010B5044C04480A462146FFF7C6FC2046DD
:1035B80010BD00BF5C080020903A000810B5044C0C
:1035C80004480A462146FFF7B8FC204610BD00BF54
:1035D8005C0800209B3A000800207047EC230B6031
:1035E8004FF40073138000207047002070470000DC
:1035F80008B5064800EB42205A0200F0DFF84021E7
:103608000348FDF70EF9002008BD00BF5C0A002042
:103618000000024008B50846054901EB42215A025C
:1036280000F0CCF880210348FDF7FBF8002008BD26
:103638005C0A00200000024000207047002070470C
:1036480038B54FF4EC320021244800F0C2F8244B7E
:10365800224A03F13C00114653F8044B42F8044B4C
:103668008342F9D11B8813801E4A552381F8FE3105
:10367800AA2381F8FF3110681B4BC1F800021079AA
:103688001871104603F5087350F8135DC1F800541B
:10369800456843F81C5C0589807A03F8160C0820F5
:1036A80023F8185C81F80B04511D213251F8040BE2
:1036B80043F8040B9142F9D10A781A700B4B0C4A63
:1036C80003F1380153F8040B42F8040B8B42F9D18B
:1036D80019889B781180937038BD00BF5C0A002060
:1036E800AB390008E93900085C0C0020A93A000849
:1036F8005C100020DFF834D0002103E00C4B5B584D
:10370800435004310B480C4B42189A42F6D30B4AEB
:1037180002E0002342F8043B094B9A42F9D3FFF731
:1037280037FD00F017F8FFF7A1FC704700000220F2
:10373800F43A0008000000208401002084010020E1
:1037480060E20120FEE70000014B1868704700BFE7
:103758002001002070B50D4E0D4CA41BA4100025AF
:10376800A54209D10B4E0C4C00F0F6F8A41BA4108E
:103778000025A54205D170BD56F82530984701357A
:10378800EEE756F8253098470135F2E7EC3A00089D
:10379800EC3A0008EC3A0008F03A0008024B0146FF
:1037A800186800F06DB800BF20010020024B0146E8
:1037B800186800F017B800BF2001002010B5431E9C
:1037C8000A44914200D110BD11F8014B03F8014F92
:1037D800F7E702440346934200D1704703F8011B00
:1037E800F9E7000038B50546002945D051F8043CF2
:1037F8000C1F002BB8BFE41800F0ACF81F4A136880
:10380800104633B9636014602846BDE8384000F0BC
:10381800A2B8A3420CD921686218934204BF1A685F
:103828005B68636004BF521822600460ECE71346CB
:103838005A680AB1A242FAD919685818A0420BD19D
:1038480020680144581882421960DDD11068526816
:103858005A6001441960D7E702D90C232B60D3E7DB
:10386800206821188A4204BF11685268626004BF48
:10387800091821605C60C7E738BD00BFAC010020B3
:1038880070B5CD1C25F0030508350C2D38BF0C2567
:10389800002D064601DBA94203D90C233360002022
:1038A80070BD00F057F8214A1468214691B9204CA0
:1038B80023681BB9304600F03DF8206029463046A1
:1038C80000F038F8431C24D10C233360304600F054
:1038D80042F8E4E70B685B1B18D40B2B0FD90B607D
:1038E800CD50CC18304600F036F804F10B00231DFB
:1038F80020F00700C31AD3D05A42E250D0E78C42D6
:103908004B6816BF636013600C46EBE70C464968CA
:10391800CCE7C41C24F00304A04205D0211A304689
:1039280000F008F80130CFD02560DBE7AC010020BB
:10393800B001002038B5064C002305460846236030
:10394800FFF70CFC431C02D1236803B12B6038BD80
:103958005CE2012070477047F8B500BFF8BC08BCAE
:103968009E467047F8B500BFF8BC08BC9E46704735
:103978000006000000000000000000000000000039
:103988000000000300808300000000000000000128
:1039980002030406070809000000000102030400EE
:1039A800020102EBFE904D53444F53352E30000276
:1039B800010100011000EC00F801003F00FF0000C9
:1039C80000000000000000800029FECAFECA53540F
:1039D8004D5F52414D4449534B46415431322020AA
:1039E80020F8FFFFFF0F5445585446494C4554589A
:1039F800542000000000000000000000000000004B
:103A080002003B008002021F00000053544D20209A
:103A180020202050726F647563742020202020209D
:103A2800202020302E303153544D333220437562DC
:103A3800654D58204D6173732053746F72616765CB
:103A4800204465766963652052616D204469736B13
:103A5800202D20646F6E6520627920776567690D77
:103A68000A0053544D6963726F656C656374726FB5
:103A78006E6963730053544D3332204D6173732064
:103A880053746F72616765004D534320436F6E66D0
:103A98006967004D534320496E74657266616365BA
:103AA8000053544D333220437562654D58204D61A3
:103AB80073732053746F7261676520446576696318
:103AC800652052616D204469736B202D20646F6EF0
:0C3AD8006520627920776567690D0A009F
:083AE40014C7FF7F0100000080
:043AEC00AD01000820
:043AF0008901000840
:103AF400010000001000000009022000010104C0C0
:103B0400320904000002080650050705810200027C
:103B1400000705010200020009022000010104C09F
:103B2400320904000002080650050705810240001E
:103B3400000705010240000009072000010104C03C
:103B440032090400000208065005070581024000FE
:103B540000070501024000000A06000200000040C0
:103B640001000000352000088F200008C120000853
:103B74000000000000000000112200081B220008C1
:103B84000000000000000000000000000520000804
:103B9400112000081D200008292000080024F4003A
:103BA400120100020000004083042A5700020102AF
:103BB40003010000040309041A03000000000000CC
:103BC40000000000000000000000000000000000F1
:103BD40000000000ED340008F934000871350008D5
:103BE4008D35000831350008A9350008C5350008B1
:103BF400E1350008E535000845360008413600087F
:103C04001D360008F9350008F33500080B3A0008A2
:103C1400240100200000000000000000000000005B
:103C24000000000000000000000000000000000090
:103C34000000000000000000000000000000000080
:103C44000000000000000000000000000000000070
:103C54000000000000000000000000000000000060
:103C64000000000000000000000000000000000050
:043C7400000000004C
:04000005080036FDBC
:00000001FF
